{
  "_format": "hh-sol-artifact-1",
  "contractName": "KeepERC20Factory",
  "sourceName": "contracts/KeepERC20Factory.sol",
  "abi": [
    {
      "inputs": [
        {
          "internalType": "uint256",
          "name": "scheduleFeeRatio_",
          "type": "uint256"
        },
        {
          "internalType": "uint256",
          "name": "recoverFeeRatio_",
          "type": "uint256"
        },
        {
          "internalType": "address",
          "name": "feeTo_",
          "type": "address"
        }
      ],
      "stateMutability": "nonpayable",
      "type": "constructor"
    },
    {
      "anonymous": false,
      "inputs": [
        {
          "indexed": false,
          "internalType": "address",
          "name": "originalToken",
          "type": "address"
        },
        {
          "indexed": false,
          "internalType": "uint256",
          "name": "scheduleFeeRatio",
          "type": "uint256"
        },
        {
          "indexed": false,
          "internalType": "uint256",
          "name": "recoverFeeRatio",
          "type": "uint256"
        },
        {
          "indexed": false,
          "internalType": "address",
          "name": "feeTo",
          "type": "address"
        }
      ],
      "name": "NewKeepERC20",
      "type": "event"
    },
    {
      "anonymous": false,
      "inputs": [
        {
          "indexed": true,
          "internalType": "address",
          "name": "previousOwner",
          "type": "address"
        },
        {
          "indexed": true,
          "internalType": "address",
          "name": "newOwner",
          "type": "address"
        }
      ],
      "name": "OwnershipTransferred",
      "type": "event"
    },
    {
      "anonymous": false,
      "inputs": [
        {
          "indexed": false,
          "internalType": "address",
          "name": "prev",
          "type": "address"
        },
        {
          "indexed": false,
          "internalType": "address",
          "name": "curr",
          "type": "address"
        }
      ],
      "name": "SetFeeTo",
      "type": "event"
    },
    {
      "anonymous": false,
      "inputs": [
        {
          "indexed": false,
          "internalType": "uint256",
          "name": "prev",
          "type": "uint256"
        },
        {
          "indexed": false,
          "internalType": "uint256",
          "name": "curr",
          "type": "uint256"
        }
      ],
      "name": "SetRecoveryFeeRatio",
      "type": "event"
    },
    {
      "anonymous": false,
      "inputs": [
        {
          "indexed": false,
          "internalType": "uint256",
          "name": "prev",
          "type": "uint256"
        },
        {
          "indexed": false,
          "internalType": "uint256",
          "name": "curr",
          "type": "uint256"
        }
      ],
      "name": "SetScheduleFeeRatio",
      "type": "event"
    },
    {
      "inputs": [],
      "name": "allKeepsLength",
      "outputs": [
        {
          "internalType": "uint256",
          "name": "",
          "type": "uint256"
        }
      ],
      "stateMutability": "view",
      "type": "function"
    },
    {
      "inputs": [
        {
          "internalType": "address",
          "name": "token",
          "type": "address"
        }
      ],
      "name": "createKeep",
      "outputs": [
        {
          "internalType": "address",
          "name": "keepToken",
          "type": "address"
        }
      ],
      "stateMutability": "nonpayable",
      "type": "function"
    },
    {
      "inputs": [],
      "name": "feeTo",
      "outputs": [
        {
          "internalType": "address",
          "name": "",
          "type": "address"
        }
      ],
      "stateMutability": "view",
      "type": "function"
    },
    {
      "inputs": [
        {
          "internalType": "address",
          "name": "token",
          "type": "address"
        }
      ],
      "name": "keepOf",
      "outputs": [
        {
          "internalType": "address",
          "name": "",
          "type": "address"
        }
      ],
      "stateMutability": "view",
      "type": "function"
    },
    {
      "inputs": [
        {
          "internalType": "uint256",
          "name": "index",
          "type": "uint256"
        }
      ],
      "name": "keeps",
      "outputs": [
        {
          "internalType": "address",
          "name": "",
          "type": "address"
        }
      ],
      "stateMutability": "view",
      "type": "function"
    },
    {
      "inputs": [],
      "name": "owner",
      "outputs": [
        {
          "internalType": "address",
          "name": "",
          "type": "address"
        }
      ],
      "stateMutability": "view",
      "type": "function"
    },
    {
      "inputs": [],
      "name": "recoveryFeeRatio",
      "outputs": [
        {
          "internalType": "uint256",
          "name": "",
          "type": "uint256"
        }
      ],
      "stateMutability": "view",
      "type": "function"
    },
    {
      "inputs": [],
      "name": "renounceOwnership",
      "outputs": [],
      "stateMutability": "nonpayable",
      "type": "function"
    },
    {
      "inputs": [],
      "name": "scheduleFeeRatio",
      "outputs": [
        {
          "internalType": "uint256",
          "name": "",
          "type": "uint256"
        }
      ],
      "stateMutability": "view",
      "type": "function"
    },
    {
      "inputs": [
        {
          "internalType": "address",
          "name": "newFeeTo_",
          "type": "address"
        }
      ],
      "name": "setFeeTo",
      "outputs": [],
      "stateMutability": "nonpayable",
      "type": "function"
    },
    {
      "inputs": [
        {
          "internalType": "uint256",
          "name": "newRecoveryFeeRatio_",
          "type": "uint256"
        }
      ],
      "name": "setRecoveryFeeRatio",
      "outputs": [],
      "stateMutability": "nonpayable",
      "type": "function"
    },
    {
      "inputs": [
        {
          "internalType": "uint256",
          "name": "newScheduleFeeRatio_",
          "type": "uint256"
        }
      ],
      "name": "setScheduleFeeRatio",
      "outputs": [],
      "stateMutability": "nonpayable",
      "type": "function"
    },
    {
      "inputs": [
        {
          "internalType": "address",
          "name": "newOwner",
          "type": "address"
        }
      ],
      "name": "transferOwnership",
      "outputs": [],
      "stateMutability": "nonpayable",
      "type": "function"
    }
  ],
  "bytecode": "0x608060405234801561001057600080fd5b50604051615d79380380615d7983398101604081905261002f91610173565b61003833610123565b60038390556004829055600580546001600160a01b0319166001600160a01b0383161790556040805160008152602081018590527f078a2bafd1067376ab3ace3fc71d5d9cd67ba3a9637ae3b80c04ac7eda314069910160405180910390a1600454604080516000815260208101929092527f30899cd7222069d9fa78761f9b92bcecd92083a0428783ae12e368db3c10eae1910160405180910390a160055460408051600081526001600160a01b0390921660208301527f41d2755f00068d89c23ebc6f1e73ce119a6236a44517ca061f544a3f91c9bca4910160405180910390a15050506101b9565b600080546001600160a01b038381166001600160a01b0319831681178455604051919092169283917f8be0079c531659141344cd1fd0a4f28419497f9722a3daafe3b4186f6b6457e09190a35050565b60008060006060848603121561018857600080fd5b83516020850151604086015191945092506001600160a01b03811681146101ae57600080fd5b809150509250925092565b615bb1806101c86000396000f3fe60806040523480156200001157600080fd5b5060043610620000e05760003560e01c80638701af421162000097578063de38733e116200006e578063de38733e14620001bd578063f104a0e314620001d4578063f2fde38b14620001eb578063f46901ed146200020257600080fd5b80638701af42146200018a5780638da5cb5b14620001a1578063da3c730314620001b357600080fd5b8063017e7e5814620000e557806337548a5b14620001165780634d7db19b146200012f5780635c1ec16d1462000146578063631eb54b1462000175578063715018a6146200017e575b600080fd5b600554620000f9906001600160a01b031681565b6040516001600160a01b0390911681526020015b60405180910390f35b6200012060045481565b6040519081526020016200010d565b620000f9620001403660046200070e565b62000219565b620000f9620001573660046200070e565b6001600160a01b039081166000908152600160205260409020541690565b60025462000120565b620001886200048c565b005b620000f96200019b36600462000740565b620004a4565b6000546001600160a01b0316620000f9565b6200012060035481565b62000188620001ce36600462000740565b620004d7565b62000188620001e536600462000740565b62000527565b62000188620001fc3660046200070e565b62000570565b62000188620002133660046200070e565b620005ef565b60006001600160a01b0382166200028a5760405162461bcd60e51b815260206004820152602a60248201527f4b6565704552433230466163746f72793a3a6372656174654b6565703a205a45604482015269524f5f4144445245535360b01b60648201526084015b60405180910390fd5b6001600160a01b038281166000908152600160205260409020541615620003065760405162461bcd60e51b815260206004820152602960248201527f4b6565704552433230466163746f72793a3a6372656174654b6565703a204b4560448201526845505f45584953545360b81b606482015260840162000281565b6040516bffffffffffffffffffffffff19606084901b16602082015260009060340160405160208183030381529060405280519060200120620003516000546001600160a01b031690565b600354600454600554604051889392916001600160a01b031690620003769062000700565b6001600160a01b039586168152938516602085015260408401929092526060830152909116608082015260a0018190604051809103906000f5905080158015620003c4573d6000803e3d6000fd5b506001600160a01b03848116600081815260016020818152604080842080548888166001600160a01b031991821681179092556002805495860181559095527f405787fa12a823e0f2b7631cc41b3ba8828b3321ca811111fa75cd3aa3bb5ace90930180549094169092179092556003546004546005548351958652938501919091529083015290911660608201529092508291507feb8d254701e531b58be09b9837ba2697bcf0a4d963c8962a2f44d09527f8cd539060800160405180910390a150919050565b6200049662000654565b620004a26000620006b0565b565b600060028281548110620004bc57620004bc6200075a565b6000918252602090912001546001600160a01b031692915050565b620004e162000654565b600380549082905560408051828152602081018490527f078a2bafd1067376ab3ace3fc71d5d9cd67ba3a9637ae3b80c04ac7eda31406991015b60405180910390a15050565b6200053162000654565b600480549082905560408051828152602081018490527f30899cd7222069d9fa78761f9b92bcecd92083a0428783ae12e368db3c10eae191016200051b565b6200057a62000654565b6001600160a01b038116620005e15760405162461bcd60e51b815260206004820152602660248201527f4f776e61626c653a206e6577206f776e657220697320746865207a65726f206160448201526564647265737360d01b606482015260840162000281565b620005ec81620006b0565b50565b620005f962000654565b600580546001600160a01b038381166001600160a01b031983168117909355604080519190921680825260208201939093527f41d2755f00068d89c23ebc6f1e73ce119a6236a44517ca061f544a3f91c9bca491016200051b565b6000546001600160a01b03163314620004a25760405162461bcd60e51b815260206004820181905260248201527f4f776e61626c653a2063616c6c6572206973206e6f7420746865206f776e6572604482015260640162000281565b600080546001600160a01b038381166001600160a01b0319831681178455604051919092169283917f8be0079c531659141344cd1fd0a4f28419497f9722a3daafe3b4186f6b6457e09190a35050565b61540b806200077183390190565b6000602082840312156200072157600080fd5b81356001600160a01b03811681146200073957600080fd5b9392505050565b6000602082840312156200075357600080fd5b5035919050565b634e487b7160e01b600052603260045260246000fdfe60806040523480156200001157600080fd5b506040516200540b3803806200540b833981016040819052620000349162000387565b836001600160a01b03166306fdde036040518163ffffffff1660e01b8152600401600060405180830381865afa15801562000073573d6000803e3d6000fd5b505050506040513d6000823e601f3d908101601f191682016040526200009d919081019062000421565b604051602001620000af9190620004d9565b604051602081830303815290604052846001600160a01b03166395d89b416040518163ffffffff1660e01b8152600401600060405180830381865afa158015620000fd573d6000803e3d6000fd5b505050506040513d6000823e601f3d908101601f1916820160405262000127919081019062000421565b60405160200162000139919062000508565b6040516020818303038152906040526200015f6000620001e960201b6200181e1760201c565b60066200016d8382620005c2565b5060076200017c8282620005c2565b50505062000199620001936200023660201b60201c565b6200023a565b600980546001600160a01b038087166001600160a01b031992831617909255600a859055600b849055600c805492841692909116919091179055620001de856200028c565b50505050506200068e565b600181015460000362000233576040805180820190915260008082526020808301828152600180860180548083018255908552929093209351600290920290930190815591519101555b50565b3390565b600880546001600160a01b038381166001600160a01b0319831681179093556040519116919082907f8be0079c531659141344cd1fd0a4f28419497f9722a3daafe3b4186f6b6457e090600090a35050565b620002966200030c565b6001600160a01b038116620003015760405162461bcd60e51b815260206004820152602660248201527f4f776e61626c653a206e6577206f776e657220697320746865207a65726f206160448201526564647265737360d01b60648201526084015b60405180910390fd5b62000233816200023a565b6008546001600160a01b03163314620003685760405162461bcd60e51b815260206004820181905260248201527f4f776e61626c653a2063616c6c6572206973206e6f7420746865206f776e65726044820152606401620002f8565b565b80516001600160a01b03811681146200038257600080fd5b919050565b600080600080600060a08688031215620003a057600080fd5b620003ab866200036a565b9450620003bb602087016200036a565b93506040860151925060608601519150620003d9608087016200036a565b90509295509295909350565b634e487b7160e01b600052604160045260246000fd5b60005b8381101562000418578181015183820152602001620003fe565b50506000910152565b6000602082840312156200043457600080fd5b81516001600160401b03808211156200044c57600080fd5b818401915084601f8301126200046157600080fd5b815181811115620004765762000476620003e5565b604051601f8201601f19908116603f01168101908382118183101715620004a157620004a1620003e5565b81604052828152876020848701011115620004bb57600080fd5b620004ce836020830160208801620003fb565b979650505050505050565b64025b2b2b8160dd1b815260008251620004fb816005850160208701620003fb565b9190910160050192915050565b604b60f81b81526000825162000526816001850160208701620003fb565b9190910160010192915050565b600181811c908216806200054857607f821691505b6020821081036200056957634e487b7160e01b600052602260045260246000fd5b50919050565b601f821115620005bd57600081815260208120601f850160051c81016020861015620005985750805b601f850160051c820191505b81811015620005b957828155600101620005a4565b5050505b505050565b81516001600160401b03811115620005de57620005de620003e5565b620005f681620005ef845462000533565b846200056f565b602080601f8311600181146200062e5760008415620006155750858301515b600019600386901b1c1916600185901b178555620005b9565b600085815260208120601f198616915b828110156200065f578886015182559484019460019091019084016200063e565b50858210156200067e5787850151600019600388901b60f8161c191681555b5050505050600190811b01905550565b614d6d806200069e6000396000f3fe60806040523480156200001157600080fd5b5060043610620003f15760003560e01c80638da5cb5b1162000211578063c5edf5901162000125578063e6e4623811620000bb578063f46901ed1162000086578063f46901ed1462000926578063f4f4d237146200093d578063f823ddb21462000954578063fc0c546a146200096b57600080fd5b8063e6e4623814620008d8578063f040046a14620008e1578063f104a0e314620008f8578063f2fde38b146200090f57600080fd5b8063de38733e11620000fc578063de38733e1462000887578063e1480f2f146200089e578063e42df17614620008b5578063e433054514620008bf57600080fd5b8063c5edf590146200084f578063da3c73031462000866578063dd62ed3e146200087057600080fd5b8063a1a953fd11620001a7578063b2b0109b1162000172578063b2b0109b14620007f3578063b4cf3969146200080a578063bf376c7a1462000821578063c3be3f60146200083857600080fd5b8063a1a953fd146200078b578063a2d9499c14620007ae578063a457c2d714620007c5578063a9059cbb14620007dc57600080fd5b806392f41f2611620001e857806392f41f26146200073a578063949d225d146200075157806394bee667146200075b57806395d89b41146200078157600080fd5b80638da5cb5b14620006fa5780638f43f6a9146200070c57806390b5561d146200072357600080fd5b80633950935111620003095780636a949719116200029f57806373d4a13a116200026a57806373d4a13a14620006a85780638860805a14620006b35780638bd6645f14620006bd5780638d97767214620006d457600080fd5b80636a94971914620006345780636e04ff0d146200064b57806370a082311462000672578063715018a6146200069e57600080fd5b80634585e33b11620002e05780634585e33b14620005d65780634c19ff3314620005ef57806357486f631462000606578063690e3451146200061d57600080fd5b806339509351146200059157806339f4769314620005a857806340e58ee514620005bf57600080fd5b806323b872dd116200038b578063313ce5671162000356578063313ce567146200052957806337548a5b14620005395780633774dbc1146200054357806337b7bfdb146200055a57600080fd5b806323b872dd14620004cb578063281157b814620004e25780632d883a7314620004f95780633075f552146200051f57600080fd5b806311ebbf2411620003cc57806311ebbf24146200046857806318160ddd1462000472578063184722d814620004855780631982640c146200049c57600080fd5b8063017e7e5814620003f657806306fdde031462000427578063095ea7b31462000440575b600080fd5b600c546200040a906001600160a01b031681565b6040516001600160a01b0390911681526020015b60405180910390f35b620004316200097d565b6040516200041e919062003b3e565b620004576200045136600462003b70565b62000a17565b60405190151581526020016200041e565b6200040a62000a33565b6005545b6040519081526020016200041e565b620004576200049636600462003b9d565b62000ac4565b6200040a620004ad36600462003be4565b6001600160a01b039081166000908152600f60205260409020541690565b62000457620004dc36600462003c02565b62000b01565b62000476620004f336600462003c43565b62000b29565b620005106200050a36600462003c79565b62000b39565b6040516200041e919062003c93565b6200051062000b5a565b604051601281526020016200041e565b62000476600b5481565b620004576200055436600462003d86565b62000b7f565b620004316200056b36600462003dfe565b604080516020810193909352828101919091528051808303820181526060909201905290565b62000457620005a236600462003b70565b62000bac565b62000457620005b936600462003b70565b62000bd4565b62000457620005d036600462003c79565b62000bec565b620005ed620005e736600462003e21565b62000cbe565b005b620004576200060036600462003c02565b62000e2d565b620005106200061736600462003c79565b62000e4a565b620004576200062e36600462003b9d565b62000e6b565b620004576200064536600462003c43565b62000e99565b620006626200065c36600462003e21565b62000eb9565b6040516200041e92919062003e98565b620004766200068336600462003be4565b6001600160a01b031660009081526003602052604090205490565b620005ed6200101b565b600054620004769081565b6200051062001033565b62000662620006ce36600462003eb5565b62001053565b620006eb620006e536600462003c79565b620010f5565b6040516200041e919062003f6a565b6008546001600160a01b03166200040a565b620004576200071d36600462003d86565b62001252565b620005106200073436600462003c79565b62001271565b620004316200074b36600462003c79565b62001292565b620004766200129f565b620007726200076c36600462003be4565b620012ad565b6040516200041e919062004001565b620004316200131b565b620004766200079c36600462003c79565b60009081526002602052604090205490565b62000457620007bf36600462003c43565b6200132c565b62000457620007d636600462003b70565b6200134c565b62000457620007ed36600462003b70565b620013cd565b620007726200080436600462003be4565b620013dd565b620004316200081b36600462003c79565b620014de565b620004576200083236600462003b70565b620014eb565b620004576200084936600462004047565b620014fa565b620004316200086036600462003c79565b62001517565b62000476600a5481565b6200047662000881366004620040ac565b62001524565b620005ed6200089836600462003c79565b6200154f565b62000457620008af36600462003c02565b6200159f565b6200040a620015bc565b620008c962001658565b6040516200041e9190620040e4565b60005462000476565b62000457620008f236600462004047565b62001666565b620005ed6200090936600462003c79565b62001677565b620005ed6200092036600462003be4565b620016c0565b620005ed6200093736600462003be4565b6200173f565b620005106200094e36600462003c79565b620017a4565b620005ed620009653660046200413e565b620017c5565b6009546001600160a01b03166200040a565b6060600680546200098e90620041ef565b80601f0160208091040260200160405190810160405280929190818152602001828054620009bc90620041ef565b801562000a0d5780601f10620009e15761010080835404028352916020019162000a0d565b820191906000526020600020905b815481529060010190602001808311620009ef57829003601f168201915b5050505050905090565b60003362000a2781858562001868565b60019150505b92915050565b336000818152600f60205260408120549091906001600160a01b03161562000ab35760405162461bcd60e51b815260206004820152602860248201527f4b65657045524332303a3a63726561746557616c6c65743a20616c72656164796044820152671032bc34b9ba399760c11b60648201526084015b60405180910390fd5b62000abe8162001991565b91505090565b60003362000ad486828662001a2a565b62000af2868686604051806020016040528060008152508762001aa5565b5060019150505b949350505050565b60003362000b1185828562001a2a565b62000b1e85858562001cc6565b506001949350505050565b600062000af93385858562001e79565b604080518082019091526000808252602082015262000a2d60008362002199565b604080518082019091526000808252602082015262000b7a600062002223565b905090565b60003362000b8f87828762001a2a565b62000b9e878787878762001aa5565b506001979650505050505050565b60003362000a2781858562000bc2838362001524565b62000bce91906200423b565b62001868565b600062000be333848462002244565b50600192915050565b6000818152600d6020526040812054829061010090046001600160a01b0316336001600160a01b03161462000c705760405162461bcd60e51b815260206004820152602360248201527f4b65657045524332303a3a6f6e6c7953656e6465723a204f6e6c792073656e6460448201526232b91760e91b606482015260840162000aaa565b6000838152600d6020526040808220600401805460ff1916905551849133917f8a3ab09d8d7ef9f845216b85fb24c20f5aff7b0da89f1a7e19fbc6c561ba76129190a3600191505b50919050565b600062000cce828401846200413e565b905060005b815181101562000e2757600082828151811062000cf45762000cf462004251565b602002602001015190506000600281111562000d145762000d1462003f54565b6000828152600d602052604090205460ff16600281111562000d3a5762000d3a62003f54565b0362000d525762000d4b81620022af565b5062000e1d565b60016000828152600d602052604090205460ff16600281111562000d7a5762000d7a62003f54565b0362000d8b5762000d4b8162002609565b60026000828152600d602052604090205460ff16600281111562000db35762000db362003f54565b0362000dc45762000d4b8162002975565b60405162461bcd60e51b815260206004820152602760248201527f4b65657045524332303a3a706572666f726d55706b6565703a204e65766572206044820152663430b83832b71760c91b606482015260840162000aaa565b5060010162000cd3565b50505050565b60003362000e3d85828562001a2a565b62000b1e85858562002244565b604080518082019091526000808252602082015262000a2d60008362002d5a565b60003362000e7b86828662001a2a565b62000af2868686604051806020016040528060008152508762002d8c565b600062000b1e338585604051806020016040528060008152508662001aa5565b60006060600062000ec962001658565b905060008062000edc8688018862003dfe565b9150915062000eed82600162002f93565b915062000efc81845162002fab565b905060008062000f0d848462004267565b67ffffffffffffffff81111562000f285762000f2862003cab565b60405190808252806020026020018201604052801562000f52578160200160208202803683370190505b50905043845b8481101562000fda578187828151811062000f775762000f7762004251565b6020026020010151602001511162000fd15786818151811062000f9e5762000f9e62004251565b60200260200101516000015183858151811062000fbf5762000fbf62004251565b60209081029190910101526001909301925b60010162000f58565b5082156200100e57828252600197508160405160200162000ffc919062004001565b60405160208183030381529060405296505b5050505050509250929050565b6200102562002fbc565b62001031600062003018565b565b604080518082019091526000808252602082015262000b7a60006200306a565b336000818152600f6020526040808220549051639ba52b6760e01b8152919260609290916001600160a01b031690639ba52b67906200109d908a908a908a908a906004016200427d565b6000604051808303816000875af1158015620010bd573d6000803e3d6000fd5b505050506040513d6000823e601f3d908101601f19168201604052620010e79190810190620042cb565b925092505094509492505050565b6040805160c0810182526000808252602082018190529181018290526060808201839052608082015260a08101919091526000828152600d602052604090819020815160c081019092528054829060ff1660028111156200115a576200115a62003f54565b60028111156200116e576200116e62003f54565b815281546001600160a01b0361010090910481166020830152600183015416604082015260028201546060820152600382018054608090920191620011b390620041ef565b80601f0160208091040260200160405190810160405280929190818152602001828054620011e190620041ef565b8015620012325780601f10620012065761010080835404028352916020019162001232565b820191906000526020600020905b8154815290600101906020018083116200121457829003601f168201915b50505091835250506004919091015460ff16151560209091015292915050565b6000336200126287828762001a2a565b62000b9e878787878762002d8c565b604080518082019091526000808252602082015262000a2d6000836200308b565b606062000a2d8262002609565b600062000b7a60006200310f565b6001600160a01b0381166000908152600e60209081526040918290208054835181840281018401909452808452606093928301828280156200130f57602002820191906000526020600020905b815481526020019060010190808311620012fa575b50505050509050919050565b6060600780546200098e90620041ef565b600062000b1e338585604051806020016040528060008152508662002d8c565b600033816200135c828662001524565b905083811015620013be5760405162461bcd60e51b815260206004820152602560248201527f45524332303a2064656372656173656420616c6c6f77616e63652062656c6f77604482015264207a65726f60d81b606482015260840162000aaa565b62000b1e828686840362001868565b60003362000a2781858562001cc6565b6001600160a01b0381166000908152600e602090815260408083208054825181850281018501909352808352606094938301828280156200143e57602002820191906000526020600020905b81548152602001906001019080831162001429575b50505050509050600080600090505b8251811015620014cb5760008382815181106200146e576200146e62004251565b6020908102919091018101516000818152600d90925260409091206004015490915060ff1615620014c15780858481518110620014af57620014af62004251565b60209081029190910101526001909201915b506001016200144d565b508015620014d7578083525b5050919050565b606062000a2d8262002975565b600062000be333848462003136565b60006200150b338686868662002d8c565b50600195945050505050565b606062000a2d82620022af565b6001600160a01b03918216600090815260046020908152604080832093909416825291909152205490565b6200155962002fbc565b600a80549082905560408051828152602081018490527f078a2bafd1067376ab3ace3fc71d5d9cd67ba3a9637ae3b80c04ac7eda31406991015b60405180910390a15050565b600033620015af85828562001a2a565b62000b1e85858562003136565b336000818152600f602052604080822054815163b6549f7560e01b815291519293926001600160a01b0390911691829163b6549f7591600480820192889290919082900301818387803b1580156200161357600080fd5b505af115801562001628573d6000803e3d6000fd5b5050506001600160a01b039092166000908152600f6020526040902080546001600160a01b031916905592915050565b606062000b7a60006200315c565b60006200150b338686868662001aa5565b6200168162002fbc565b600b80549082905560408051828152602081018490527f30899cd7222069d9fa78761f9b92bcecd92083a0428783ae12e368db3c10eae1910162001593565b620016ca62002fbc565b6001600160a01b038116620017315760405162461bcd60e51b815260206004820152602660248201527f4f776e61626c653a206e6577206f776e657220697320746865207a65726f206160448201526564647265737360d01b606482015260840162000aaa565b6200173c8162003018565b50565b6200174962002fbc565b600c80546001600160a01b038381166001600160a01b031983168117909355604080519190921680825260208201939093527f41d2755f00068d89c23ebc6f1e73ce119a6236a44517ca061f544a3f91c9bca4910162001593565b604080518082019091526000808252602082015262000a2d600083620031d5565b60005b81518110156200181a5762001804828281518110620017eb57620017eb62004251565b602002602001015160006200308b90919063ffffffff16565b5080620018118162004360565b915050620017c8565b5050565b60018101546000036200173c576040805180820190915260008082526020808301828152600194850180548087018255908452919092209251600290910290920191825551910155565b6001600160a01b038316620018cc5760405162461bcd60e51b8152602060048201526024808201527f45524332303a20617070726f76652066726f6d20746865207a65726f206164646044820152637265737360e01b606482015260840162000aaa565b6001600160a01b0382166200192f5760405162461bcd60e51b815260206004820152602260248201527f45524332303a20617070726f766520746f20746865207a65726f206164647265604482015261737360f01b606482015260840162000aaa565b6001600160a01b0383811660008181526004602090815260408083209487168084529482529182902085905590518481527f8c5be1e5ebec7d5bd14f71427d1e84f3dd0314c0f7b2291e5b200ac8c7c3b92591015b60405180910390a3505050565b6000604051620019a19062003adc565b604051809103906000f080158015620019be573d6000803e3d6000fd5b506001600160a01b038381166000818152600f602090815260409182902080546001600160a01b0319169590941694851790935551838152929350917fb8b02ad86f90fa3b3834376019b8b8d0c55253f919b8246f9c4860cac962b0f5910160405180910390a2919050565b600062001a38848462001524565b9050600019811462000e27578181101562001a965760405162461bcd60e51b815260206004820152601d60248201527f45524332303a20696e73756666696369656e7420616c6c6f77616e6365000000604482015260640162000aaa565b62000e27848484840362001868565b60008062001ab483436200423b565b90506000600b5460001415801562001ad65750600c546001600160a01b031615155b1562001b1f57612710600b548762001aef91906200437c565b62001afb919062004396565b600c5460095491925062001b1f916001600160a01b03908116918b91168462003207565b62001b37888862001b31848a62004267565b62003136565b600062001b448362001271565b80516040805160c0810190915290955090915080600181526001600160a01b03808c1660208301528a16604082015260600162001b82848a62004267565b81526020808201899052600160409283018190526000888152600d9092529190208251815491929091839160ff199091169083600281111562001bc95762001bc962003f54565b021790555060208201518154610100600160a81b0319166101006001600160a01b039283160217825560408301516001830180546001600160a01b03191691909216179055606082015160028201556080820151600382019062001c2e908262004403565b5060a091909101516004909101805460ff19169115159190911790556001600160a01b0388166000908152600e60209081526040808320805460018101825590845291909220018590555184907fa9f46dfefd499c7caa85b305626c109c39d4e18c4b40e67f2961e7bf4c6932d89062001cb2908c908c908c908c908c90620044d0565b60405180910390a250505095945050505050565b6001600160a01b03831662001d2c5760405162461bcd60e51b815260206004820152602560248201527f45524332303a207472616e736665722066726f6d20746865207a65726f206164604482015264647265737360d81b606482015260840162000aaa565b6001600160a01b03821662001d905760405162461bcd60e51b815260206004820152602360248201527f45524332303a207472616e7366657220746f20746865207a65726f206164647260448201526265737360e81b606482015260840162000aaa565b6001600160a01b0383166000908152600360205260409020548181101562001e0a5760405162461bcd60e51b815260206004820152602660248201527f45524332303a207472616e7366657220616d6f756e7420657863656564732062604482015265616c616e636560d01b606482015260840162000aaa565b6001600160a01b0380851660008181526003602052604080822086860390559286168082529083902080548601905591517fddf252ad1be2c89b69c2b068fc378daa952ba7f163c4a11628f55a4df523b3ef9062001e6b9086815260200190565b60405180910390a362000e27565b6001600160a01b038481166000908152600f602052604081205490911662001ea85762001ea68562001991565b505b6001600160a01b038581166000908152600f602090815260408083205460095482518a8716948101949094528383018990528251808503840181526060850193849052639ba52b6760e01b909352908516948593639ba52b679362001f169390921691869160640162004517565b6000604051808303816000875af115801562001f36573d6000803e3d6000fd5b505050506040513d6000823e601f3d908101601f1916820160405262001f609190810190620042cb565b5090508062001fd85760405162461bcd60e51b815260206004820152603960248201527f4b65657045524332303a3a5f7175657565457870697261626c65417070726f7660448201527f653a204661696c20746f206063616c6c602077616c6c65742e00000000000000606482015260840162000aaa565b600062001fe685436200423b565b9050600062001ff58262001271565b80516040805160c0810190915290965090915080600281526020018a6001600160a01b03168152602001896001600160a01b0316815260200188815260200160405180602001604052806000815250815260200160011515815250600d600087815260200190815260200160002060008201518160000160006101000a81548160ff0219169083600281111562002090576200209062003f54565b021790555060208201518154610100600160a81b0319166101006001600160a01b039283160217825560408301516001830180546001600160a01b031916919092161790556060820151600282015560808201516003820190620020f5908262004403565b5060a091909101516004909101805460ff19169115159190911790556001600160a01b038981166000818152600e602090815260408083208054600181018255908452928290209092018990558151928352928b16928201929092529081018890526060810187905285907f47870cbd68eb22ef1a1fd8169d2cdf8f4747d4454cdcad09c5cedb7be3ee4b8b9060800160405180910390a250505050949350505050565b604080518082019091526000808252602082015260018301548210620021d65760405180604001604052806000815260200160008152506200221c565b826001018281548110620021ee57620021ee62004251565b9060005260206000209060020201604051806040016040529081600082015481526020016001820154815250505b9392505050565b604080518082019091526000808252602082015262000a2d82600162002199565b62002250838262003279565b60095462002269906001600160a01b03168383620033b1565b816001600160a01b0316836001600160a01b03167f32771713d1bc9f76444ca8b47f67bb9a592b559397cf27cfea344efa0fdb7d8b836040516200198491815260200190565b60606000620022be8362000e4a565b905043816020015111156200231c5760405162461bcd60e51b815260206004820152602e602482015260008051602062004d1883398151915260448201526d39b332b91d102737ba103cb2ba1760911b606482015260840162000aaa565b6000838152600d6020526040808220815160c081019092528054829060ff1660028111156200234f576200234f62003f54565b600281111562002363576200236362003f54565b815281546001600160a01b0361010090910481166020830152600183015416604082015260028201546060820152600382018054608090920191620023a890620041ef565b80601f0160208091040260200160405190810160405280929190818152602001828054620023d690620041ef565b8015620024275780601f10620023fb5761010080835404028352916020019162002427565b820191906000526020600020905b8154815290600101906020018083116200240957829003601f168201915b50505091835250506004919091015460ff16151560209091015290506000815160028111156200245b576200245b62003f54565b14620024b55760405162461bcd60e51b8152602060048201526033602482015260008051602062004d1883398151915260448201527239b332b91d102a3cb8329034b73b30b634b21760691b606482015260840162000aaa565b8060a001516200251d5760405162461bcd60e51b8152602060048201526037602482015260008051602062004d1883398151915260448201527f736665723a20416c72656164792065786563757465642e000000000000000000606482015260840162000aaa565b6200253681602001518260400151836060015162002244565b60808101515115620025d157600081604001516001600160a01b0316826080015160405162002566919062004588565b6000604051808303816000865af19150503d8060008114620025a5576040519150601f19603f3d011682016040523d82523d6000602084013e620025aa565b606091505b509450905080620025cf5760405162461bcd60e51b815260040162000aaa90620045a6565b505b600060a0820181905260405185917fbc2f17d03f1ee36936973681deb37383be43281df00048c44aa427185d4f01b591a25050919050565b60606000620026188362000e4a565b6000848152600d6020526040808220815160c0810190925280549394509192909190829060ff16600281111562002653576200265362003f54565b600281111562002667576200266762003f54565b815281546001600160a01b0361010090910481166020830152600183015416604082015260028201546060820152600382018054608090920191620026ac90620041ef565b80601f0160208091040260200160405190810160405280929190818152602001828054620026da90620041ef565b80156200272b5780601f10620026ff576101008083540402835291602001916200272b565b820191906000526020600020905b8154815290600101906020018083116200270d57829003601f168201915b50505091835250506004919091015460ff16151560209091015290506001815160028111156200275f576200275f62003f54565b14620027cc5760405162461bcd60e51b815260206004820152603560248201527f4b65657045524332303a3a5f657865637574655265636f76657261626c65547260448201527430b739b332b91d102a3cb8329034b73b30b634b21760591b606482015260840162000aaa565b8060a00151620028455760405162461bcd60e51b815260206004820152603960248201527f4b65657045524332303a3a5f657865637574655265636f76657261626c65547260448201527f616e736665723a20416c72656164792065786563757465642e00000000000000606482015260840162000aaa565b604081015133906001600160a01b0316810362002915576200286d8182846060015162002244565b608082015151156200290857600082604001516001600160a01b031683608001516040516200289d919062004588565b6000604051808303816000865af19150503d8060008114620028dc576040519150601f19603f3d011682016040523d82523d6000602084013e620028e1565b606091505b509550905080620029065760405162461bcd60e51b815260040162000aaa90620045a6565b505b600060a083015262002942565b4383602001511162002942576200293a82604001518360200151846060015162002244565b600060a08301525b60405185907f160188f313c5b965abb68012f9317010733c0b4d2a8fd78f417ded4d6f1d307890600090a2505050919050565b60606000620029848362000e4a565b90504381602001511115620029e15760405162461bcd60e51b815260206004820152602d602482015260008051602062004cf883398151915260448201526c37bb329d102737ba103cb2ba1760991b606482015260840162000aaa565b6000838152600d6020526040808220815160c081019092528054829060ff16600281111562002a145762002a1462003f54565b600281111562002a285762002a2862003f54565b815281546001600160a01b036101009091048116602083015260018301541660408201526002820154606082015260038201805460809092019162002a6d90620041ef565b80601f016020809104026020016040519081016040528092919081815260200182805462002a9b90620041ef565b801562002aec5780601f1062002ac05761010080835404028352916020019162002aec565b820191906000526020600020905b81548152906001019060200180831162002ace57829003601f168201915b50505091835250506004919091015460ff161515602090910152905060028151600281111562002b205762002b2062003f54565b1462002b795760405162461bcd60e51b8152602060048201526032602482015260008051602062004cf883398151915260448201527137bb329d102a3cb8329034b73b30b634b21760711b606482015260840162000aaa565b8060a0015162002bda5760405162461bcd60e51b8152602060048201526036602482015260008051602062004cf883398151915260448201527537bb329d1020b63932b0b23c9032bc32b1baba32b21760511b606482015260840162000aaa565b6020808201516001600160a01b039081166000908152600f835260408082205460095482870151606088015193519286169694958795639ba52b67959390911693879362002c3f93929091016001600160a01b03929092168252602082015260400190565b6040516020818303038152906040526040518463ffffffff1660e01b815260040162002c6e93929190620045eb565b6000604051808303816000875af115801562002c8e573d6000803e3d6000fd5b505050506040513d6000823e601f3d908101601f1916820160405262002cb89190810190620042cb565b955090508062002d205760405162461bcd60e51b815260206004820152603b602482015260008051602062004cf883398151915260448201527f6f76653a204661696c20746f206063616c6c602077616c6c65742e0000000000606482015260840162000aaa565b600060a0840181905260405187917f230e70de89ca48ced557b7884131754654b0fe89441816d741036bd1be97da4f91a250505050919050565b604080518082019091526000808252602082015260008281526002840160205260409020546200221c908490620033e3565b60008062002d9b83436200423b565b90506000600a5460001415801562002dbd5750600c546001600160a01b031615155b1562002e0657612710600a548762002dd691906200437c565b62002de2919062004396565b600c5460095491925062002e06916001600160a01b03908116918b91168462003207565b62002e18888062001b31848a62004267565b600062002e258362001271565b80516040805160c0810190915290955090915080600081526001600160a01b03808c1660208301528a16604082015260600162002e63848a62004267565b81526020808201899052600160409283018190526000888152600d9092529190208251815491929091839160ff199091169083600281111562002eaa5762002eaa62003f54565b021790555060208201518154610100600160a81b0319166101006001600160a01b039283160217825560408301516001830180546001600160a01b03191691909216179055606082015160028201556080820151600382019062002f0f908262004403565b5060a091909101516004909101805460ff19169115159190911790556001600160a01b0389166000908152600e60209081526040808320805460018101825590845291909220018590555184907f69408ec83decf8148ce29ab130cb001075fe6bf54065ba41e4d62e7bdc9482b49062001cb2908c908c908c908c908c90620044d0565b600081831162002fa457816200221c565b5090919050565b600081831162000cb857826200221c565b6008546001600160a01b03163314620010315760405162461bcd60e51b815260206004820181905260248201527f4f776e61626c653a2063616c6c6572206973206e6f7420746865206f776e6572604482015260640162000aaa565b600880546001600160a01b038381166001600160a01b0319831681179093556040519116919082907f8be0079c531659141344cd1fd0a4f28419497f9722a3daafe3b4186f6b6457e090600090a35050565b604080518082019091526000808252602082015262000a2d826001620033e3565b60408051808201909152600080825260208201526001830154600003620030b757620030b7836200181e565b8254836000620030c78362004360565b9091555050600180840180548201808255600091909152604080518082019091528554815260208101859052916200221c918691849162003109919062004267565b6200357c565b60018101546000906200312457600062000a2d565b60018281015462000a2d919062004267565b60095462003150906001600160a01b031684308462003207565b62002269828262003648565b606081600101805480602002602001604051908101604052809291908181526020016000905b82821015620031ca5783829060005260206000209060020201604051806040016040529081600082015481526020016001820154815250508152602001906001019062003182565b505050509050919050565b604080518082019091526000808252602082015260008281526002840160205260409020546200221c90849062002199565b6040516001600160a01b038085166024830152831660448201526064810182905262000e279085906323b872dd60e01b906084015b60408051601f198184030181529190526020810180516001600160e01b03166001600160e01b0319909316929092179091526200370d565b505050565b6001600160a01b038216620032db5760405162461bcd60e51b815260206004820152602160248201527f45524332303a206275726e2066726f6d20746865207a65726f206164647265736044820152607360f81b606482015260840162000aaa565b6001600160a01b03821660009081526003602052604090205481811015620033515760405162461bcd60e51b815260206004820152602260248201527f45524332303a206275726e20616d6f756e7420657863656564732062616c616e604482015261636560f01b606482015260840162000aaa565b6001600160a01b03831660008181526003602090815260408083208686039055600580548790039055518581529192917fddf252ad1be2c89b69c2b068fc378daa952ba7f163c4a11628f55a4df523b3ef910160405180910390a3505050565b6040516001600160a01b0383166024820152604481018290526200327490849063a9059cbb60e01b906064016200323c565b604080518082019091526000808252602082015260018301548210158062003409575081155b156200342a5750604080518082019091526000808252602082015262000a2d565b600083600101838154811062003444576200344462004251565b6000918252602080832060408051808201825260029485029092018054808452600191820154848601528652938901909252908320839055868201805491945091620034909162004267565b81548110620034a357620034a362004251565b906000526020600020906002020160405180604001604052908160008201548152602001600182015481525050905084600101805480620034e857620034e862004653565b60008281526020812060026000199093019283020181815560019081019190915591558501548410156200357457620035238582866200357c565b620035748586600101868154811062003540576200354062004251565b90600052602060002090600202016040518060400160405290816000820154815260200160018201548152505086620037e6565b509392505050565b6001811480620035c55750600183016200359860028362004396565b81548110620035ab57620035ab62004251565b906000526020600020906002020160010154826020015111155b15620035d8576200327483838362003959565b620036358360018101620035ee60028562004396565b8154811062003601576200360162004251565b9060005260206000209060020201604051806040016040529081600082015481526020016001820154815250508362003959565b6200327483836200310960028562004396565b6001600160a01b038216620036a05760405162461bcd60e51b815260206004820152601f60248201527f45524332303a206d696e7420746f20746865207a65726f206164647265737300604482015260640162000aaa565b8060056000828254620036b491906200423b565b90915550506001600160a01b0382166000818152600360209081526040808320805486019055518481527fddf252ad1be2c89b69c2b068fc378daa952ba7f163c4a11628f55a4df523b3ef910160405180910390a35050565b600062003764826040518060400160405280602081526020017f5361666545524332303a206c6f772d6c6576656c2063616c6c206661696c6564815250856001600160a01b0316620039a99092919063ffffffff16565b80519091501562003274578080602001905181019062003785919062004669565b620032745760405162461bcd60e51b815260206004820152602a60248201527f5361666545524332303a204552433230206f7065726174696f6e20646964206e6044820152691bdd081cdd58d8d9595960b21b606482015260840162000aaa565b60018301546000620037fa8360026200437c565b905080821162003817576200381185858562003959565b62003952565b600085600101828154811062003831576200383162004251565b90600052602060002090600202016040518060400160405290816000820154815260200160018201548152505090508160016200386f91906200423b565b83118015620038b857508060200151866001018360016200389191906200423b565b81548110620038a457620038a462004251565b906000526020600020906002020160010154115b15620039135760018601620038cd8362004360565b92508281548110620038e357620038e362004251565b90600052602060002090600202016040518060400160405290816000820154815260200160018201548152505090505b846020015181602001511162003936576200393086868662003959565b62003950565b6200394386828662003959565b62003950868684620037e6565b505b5050505050565b8183600101828154811062003972576200397262004251565b6000918252602080832084516002938402909101908155938101516001909401939093559351815293909201909152604090912055565b606062000af9848460008585600080866001600160a01b03168587604051620039d3919062004588565b60006040518083038185875af1925050503d806000811462003a12576040519150601f19603f3d011682016040523d82523d6000602084013e62003a17565b606091505b509150915062003a2a8783838762003a35565b979650505050505050565b6060831562003aa957825160000362003aa1576001600160a01b0385163b62003aa15760405162461bcd60e51b815260206004820152601d60248201527f416464726573733a2063616c6c20746f206e6f6e2d636f6e7472616374000000604482015260640162000aaa565b508162000af9565b62000af9838381511562003ac05781518083602001fd5b8060405162461bcd60e51b815260040162000aaa919062003b3e565b610670806200468883390190565b60005b8381101562003b0757818101518382015260200162003aed565b50506000910152565b6000815180845262003b2a81602086016020860162003aea565b601f01601f19169290920160200192915050565b6020815260006200221c602083018462003b10565b80356001600160a01b038116811462003b6b57600080fd5b919050565b6000806040838503121562003b8457600080fd5b62003b8f8362003b53565b946020939093013593505050565b6000806000806080858703121562003bb457600080fd5b62003bbf8562003b53565b935062003bcf6020860162003b53565b93969395505050506040820135916060013590565b60006020828403121562003bf757600080fd5b6200221c8262003b53565b60008060006060848603121562003c1857600080fd5b62003c238462003b53565b925062003c336020850162003b53565b9150604084013590509250925092565b60008060006060848603121562003c5957600080fd5b62003c648462003b53565b95602085013595506040909401359392505050565b60006020828403121562003c8c57600080fd5b5035919050565b81518152602080830151908201526040810162000a2d565b634e487b7160e01b600052604160045260246000fd5b604051601f8201601f1916810167ffffffffffffffff8111828210171562003ced5762003ced62003cab565b604052919050565b600067ffffffffffffffff82111562003d125762003d1262003cab565b50601f01601f191660200190565b600062003d3762003d318462003cf5565b62003cc1565b905082815283838301111562003d4c57600080fd5b828260208301376000602084830101529392505050565b600082601f83011262003d7557600080fd5b6200221c8383356020850162003d20565b600080600080600060a0868803121562003d9f57600080fd5b62003daa8662003b53565b945062003dba6020870162003b53565b935060408601359250606086013567ffffffffffffffff81111562003dde57600080fd5b62003dec8882890162003d63565b95989497509295608001359392505050565b6000806040838503121562003e1257600080fd5b50508035926020909101359150565b6000806020838503121562003e3557600080fd5b823567ffffffffffffffff8082111562003e4e57600080fd5b818501915085601f83011262003e6357600080fd5b81358181111562003e7357600080fd5b86602082850101111562003e8657600080fd5b60209290920196919550909350505050565b821515815260406020820152600062000af9604083018462003b10565b6000806000806080858703121562003ecc57600080fd5b62003ed78562003b53565b935060208501359250604085013567ffffffffffffffff8082111562003efc57600080fd5b818701915087601f83011262003f1157600080fd5b62003f228883356020850162003d20565b9350606087013591508082111562003f3957600080fd5b5062003f488782880162003d63565b91505092959194509250565b634e487b7160e01b600052602160045260246000fd5b60208152600082516003811062003f9157634e487b7160e01b600052602160045260246000fd5b8060208401525060018060a01b036020840151166040830152604083015162003fc560608401826001600160a01b03169052565b5060608301516080830152608083015160c060a084015262003feb60e084018262003b10565b905060a08401516200357460c085018215159052565b6020808252825182820181905260009190848201906040850190845b818110156200403b578351835292840192918401916001016200401d565b50909695505050505050565b600080600080608085870312156200405e57600080fd5b620040698562003b53565b935060208501359250604085013567ffffffffffffffff8111156200408d57600080fd5b6200409b8782880162003d63565b949793965093946060013593505050565b60008060408385031215620040c057600080fd5b620040cb8362003b53565b9150620040db6020840162003b53565b90509250929050565b602080825282518282018190526000919060409081850190868401855b8281101562004131576200412084835180518252602090810151910152565b928401929085019060010162004101565b5091979650505050505050565b600060208083850312156200415257600080fd5b823567ffffffffffffffff808211156200416b57600080fd5b818501915085601f8301126200418057600080fd5b81358181111562004195576200419562003cab565b8060051b9150620041a884830162003cc1565b8181529183018401918481019088841115620041c357600080fd5b938501935b83851015620041e357843582529385019390850190620041c8565b98975050505050505050565b600181811c908216806200420457607f821691505b60208210810362000cb857634e487b7160e01b600052602260045260246000fd5b634e487b7160e01b600052601160045260246000fd5b8082018082111562000a2d5762000a2d62004225565b634e487b7160e01b600052603260045260246000fd5b8181038181111562000a2d5762000a2d62004225565b60018060a01b0385168152836020820152608060408201526000620042a6608083018562003b10565b828103606084015262003a2a818562003b10565b8051801515811462003b6b57600080fd5b60008060408385031215620042df57600080fd5b620042ea83620042ba565b9150602083015167ffffffffffffffff8111156200430757600080fd5b8301601f810185136200431957600080fd5b80516200432a62003d318262003cf5565b8181528660208385010111156200434057600080fd5b6200435382602083016020860162003aea565b8093505050509250929050565b60006001820162004375576200437562004225565b5060010190565b808202811582820484141762000a2d5762000a2d62004225565b600082620043b457634e487b7160e01b600052601260045260246000fd5b500490565b601f8211156200327457600081815260208120601f850160051c81016020861015620043e25750805b601f850160051c820191505b818110156200395057828155600101620043ee565b815167ffffffffffffffff81111562004420576200442062003cab565b6200443881620044318454620041ef565b84620043b9565b602080601f831160018114620044705760008415620044575750858301515b600019600386901b1c1916600185901b17855562003950565b600085815260208120601f198616915b82811015620044a15788860151825594840194600190910190840162004480565b5085821015620044c05787850151600019600388901b60f8161c191681555b5050505050600190811b01905550565b6001600160a01b038681168252851660208201526040810184905260a060608201819052600090620045059083018562003b10565b90508260808301529695505050505050565b60018060a01b038416815282602082015260806040820152602260808201527f696e637265617365416c6c6f77616e636528616464726573732c75696e74323560a082015261362960f01b60c082015260e0606082015260006200457f60e083018462003b10565b95945050505050565b600082516200459c81846020870162003aea565b9190910192915050565b602080825260369082015260008051602062004d1883398151915260408201527539b332b91d102330b4b6103a379031b0b63634b7339760511b606082015260800190565b60018060a01b038416815282602082015260806040820152602260808201527f6465637265617365416c6c6f77616e636528616464726573732c75696e74323560a082015261362960f01b60c082015260e0606082015260006200457f60e083018462003b10565b634e487b7160e01b600052603160045260246000fd5b6000602082840312156200467c57600080fd5b6200221c82620042ba56fe608060405234801561001057600080fd5b5061001a3361001f565b61006f565b600080546001600160a01b038381166001600160a01b0319831681178455604051919092169283917f8be0079c531659141344cd1fd0a4f28419497f9722a3daafe3b4186f6b6457e09190a35050565b6105f28061007e6000396000f3fe608060405234801561001057600080fd5b50600436106100575760003560e01c8063715018a61461005c5780638da5cb5b146100665780639ba52b6714610086578063b6549f75146100a7578063f2fde38b146100af575b600080fd5b6100646100c2565b005b6000546040516001600160a01b0390911681526020015b60405180910390f35b6100996100943660046103ed565b6100d6565b60405161007d9291906104e6565b6100646101d2565b6100646100bd366004610509565b61021d565b6100ca61029b565b6100d460006102f5565b565b600060606100e261029b565b606084516000036100f4575082610120565b84805190602001208460405160200161010e92919061052b565b60405160208183030381529060405290505b866001600160a01b03168682604051610139919061055c565b60006040518083038185875af1925050503d8060008114610176576040519150601f19603f3d011682016040523d82523d6000602084013e61017b565b606091505b509093509150336001600160a01b03167f9ab1c51b7c3c7b2a4c3fcb6cbac2151ec03101cb2a6aaa627878e2fbfd188857888888886040516101c09493929190610578565b60405180910390a25094509492505050565b6101da61029b565b604080513081529051339182917f3a20f2dd459c611240256d82d034e789fcb2b77ee688322a90c26676677e61c19181900360200190a2806001600160a01b0316ff5b61022561029b565b6001600160a01b03811661028f5760405162461bcd60e51b815260206004820152602660248201527f4f776e61626c653a206e6577206f776e657220697320746865207a65726f206160448201526564647265737360d01b60648201526084015b60405180910390fd5b610298816102f5565b50565b6000546001600160a01b031633146100d45760405162461bcd60e51b815260206004820181905260248201527f4f776e61626c653a2063616c6c6572206973206e6f7420746865206f776e65726044820152606401610286565b600080546001600160a01b038381166001600160a01b0319831681178455604051919092169283917f8be0079c531659141344cd1fd0a4f28419497f9722a3daafe3b4186f6b6457e09190a35050565b80356001600160a01b038116811461035c57600080fd5b919050565b634e487b7160e01b600052604160045260246000fd5b600067ffffffffffffffff8084111561039257610392610361565b604051601f8501601f19908116603f011681019082821181831017156103ba576103ba610361565b816040528093508581528686860111156103d357600080fd5b858560208301376000602087830101525050509392505050565b6000806000806080858703121561040357600080fd5b61040c85610345565b935060208501359250604085013567ffffffffffffffff8082111561043057600080fd5b818701915087601f83011261044457600080fd5b61045388833560208501610377565b9350606087013591508082111561046957600080fd5b508501601f8101871361047b57600080fd5b61048a87823560208401610377565b91505092959194509250565b60005b838110156104b1578181015183820152602001610499565b50506000910152565b600081518084526104d2816020860160208601610496565b601f01601f19169290920160200192915050565b821515815260406020820152600061050160408301846104ba565b949350505050565b60006020828403121561051b57600080fd5b61052482610345565b9392505050565b6001600160e01b031983168152815160009061054e816004850160208701610496565b919091016004019392505050565b6000825161056e818460208701610496565b9190910192915050565b60018060a01b038516815283602082015260806040820152600061059f60808301856104ba565b82810360608401526105b181856104ba565b97965050505050505056fea2646970667358221220b2a59ccabf9227b0bb6e3da45dd8a7a72664297996d79c641de8281104b00cd764736f6c634300081100334b65657045524332303a3a5f65786563757465457870697261626c65417070724b65657045524332303a3a5f657865637574655363686564756c65645472616ea2646970667358221220d2a94c92bae4ead8c71634b5e6668ce6c232861fff7c14c669cf7af730dad09264736f6c63430008110033a264697066735822122029a8f3f6249e5819f03c4cafbba1ae3b8de795b8b67ff8a78369f61918df35aa64736f6c63430008110033",
  "linkReferences": {},
  "deployedLinkReferences": {}
}