{
  "_format": "hh-sol-artifact-1",
  "contractName": "Wallet",
  "sourceName": "contracts/Wallet.sol",
  "abi": [
    {
      "anonymous": false,
      "inputs": [
        {
          "indexed": true,
          "internalType": "address",
          "name": "previousOwner",
          "type": "address"
        },
        {
          "indexed": true,
          "internalType": "address",
          "name": "newOwner",
          "type": "address"
        }
      ],
      "name": "OwnershipTransferred",
      "type": "event"
    },
    {
      "anonymous": false,
      "inputs": [
        {
          "indexed": true,
          "internalType": "address",
          "name": "account",
          "type": "address"
        },
        {
          "indexed": false,
          "internalType": "address",
          "name": "wallet",
          "type": "address"
        }
      ],
      "name": "RevokeWallet",
      "type": "event"
    },
    {
      "anonymous": false,
      "inputs": [
        {
          "indexed": true,
          "internalType": "address",
          "name": "owner",
          "type": "address"
        },
        {
          "indexed": false,
          "internalType": "address",
          "name": "target",
          "type": "address"
        },
        {
          "indexed": false,
          "internalType": "uint256",
          "name": "value",
          "type": "uint256"
        },
        {
          "indexed": false,
          "internalType": "string",
          "name": "signature",
          "type": "string"
        },
        {
          "indexed": false,
          "internalType": "bytes",
          "name": "data",
          "type": "bytes"
        }
      ],
      "name": "WalletCall",
      "type": "event"
    },
    {
      "inputs": [
        {
          "internalType": "address",
          "name": "target",
          "type": "address"
        },
        {
          "internalType": "uint256",
          "name": "value",
          "type": "uint256"
        },
        {
          "internalType": "string",
          "name": "signature",
          "type": "string"
        },
        {
          "internalType": "bytes",
          "name": "data",
          "type": "bytes"
        }
      ],
      "name": "call",
      "outputs": [
        {
          "internalType": "bool",
          "name": "success",
          "type": "bool"
        },
        {
          "internalType": "bytes",
          "name": "returnData",
          "type": "bytes"
        }
      ],
      "stateMutability": "nonpayable",
      "type": "function"
    },
    {
      "inputs": [],
      "name": "owner",
      "outputs": [
        {
          "internalType": "address",
          "name": "",
          "type": "address"
        }
      ],
      "stateMutability": "view",
      "type": "function"
    },
    {
      "inputs": [],
      "name": "renounceOwnership",
      "outputs": [],
      "stateMutability": "nonpayable",
      "type": "function"
    },
    {
      "inputs": [],
      "name": "revoke",
      "outputs": [],
      "stateMutability": "nonpayable",
      "type": "function"
    },
    {
      "inputs": [
        {
          "internalType": "address",
          "name": "newOwner",
          "type": "address"
        }
      ],
      "name": "transferOwnership",
      "outputs": [],
      "stateMutability": "nonpayable",
      "type": "function"
    }
  ],
  "bytecode": "0x608060405234801561001057600080fd5b5061001a3361001f565b61006f565b600080546001600160a01b038381166001600160a01b0319831681178455604051919092169283917f8be0079c531659141344cd1fd0a4f28419497f9722a3daafe3b4186f6b6457e09190a35050565b6105f28061007e6000396000f3fe608060405234801561001057600080fd5b50600436106100575760003560e01c8063715018a61461005c5780638da5cb5b146100665780639ba52b6714610086578063b6549f75146100a7578063f2fde38b146100af575b600080fd5b6100646100c2565b005b6000546040516001600160a01b0390911681526020015b60405180910390f35b6100996100943660046103ed565b6100d6565b60405161007d9291906104e6565b6100646101d2565b6100646100bd366004610509565b61021d565b6100ca61029b565b6100d460006102f5565b565b600060606100e261029b565b606084516000036100f4575082610120565b84805190602001208460405160200161010e92919061052b565b60405160208183030381529060405290505b866001600160a01b03168682604051610139919061055c565b60006040518083038185875af1925050503d8060008114610176576040519150601f19603f3d011682016040523d82523d6000602084013e61017b565b606091505b509093509150336001600160a01b03167f9ab1c51b7c3c7b2a4c3fcb6cbac2151ec03101cb2a6aaa627878e2fbfd188857888888886040516101c09493929190610578565b60405180910390a25094509492505050565b6101da61029b565b604080513081529051339182917f3a20f2dd459c611240256d82d034e789fcb2b77ee688322a90c26676677e61c19181900360200190a2806001600160a01b0316ff5b61022561029b565b6001600160a01b03811661028f5760405162461bcd60e51b815260206004820152602660248201527f4f776e61626c653a206e6577206f776e657220697320746865207a65726f206160448201526564647265737360d01b60648201526084015b60405180910390fd5b610298816102f5565b50565b6000546001600160a01b031633146100d45760405162461bcd60e51b815260206004820181905260248201527f4f776e61626c653a2063616c6c6572206973206e6f7420746865206f776e65726044820152606401610286565b600080546001600160a01b038381166001600160a01b0319831681178455604051919092169283917f8be0079c531659141344cd1fd0a4f28419497f9722a3daafe3b4186f6b6457e09190a35050565b80356001600160a01b038116811461035c57600080fd5b919050565b634e487b7160e01b600052604160045260246000fd5b600067ffffffffffffffff8084111561039257610392610361565b604051601f8501601f19908116603f011681019082821181831017156103ba576103ba610361565b816040528093508581528686860111156103d357600080fd5b858560208301376000602087830101525050509392505050565b6000806000806080858703121561040357600080fd5b61040c85610345565b935060208501359250604085013567ffffffffffffffff8082111561043057600080fd5b818701915087601f83011261044457600080fd5b61045388833560208501610377565b9350606087013591508082111561046957600080fd5b508501601f8101871361047b57600080fd5b61048a87823560208401610377565b91505092959194509250565b60005b838110156104b1578181015183820152602001610499565b50506000910152565b600081518084526104d2816020860160208601610496565b601f01601f19169290920160200192915050565b821515815260406020820152600061050160408301846104ba565b949350505050565b60006020828403121561051b57600080fd5b61052482610345565b9392505050565b6001600160e01b031983168152815160009061054e816004850160208701610496565b919091016004019392505050565b6000825161056e818460208701610496565b9190910192915050565b60018060a01b038516815283602082015260806040820152600061059f60808301856104ba565b82810360608401526105b181856104ba565b97965050505050505056fea2646970667358221220b2a59ccabf9227b0bb6e3da45dd8a7a72664297996d79c641de8281104b00cd764736f6c63430008110033",
  "linkReferences": {},
  "deployedLinkReferences": {}
}